:1020000000800020114C0000F94B0000F94B00004B
:1020100000000000000000000000000000000000C0
:10202000000000000000000000000000F94B00006C
:102030000000000000000000F94B0000654C0000AB
:10204000F94B0000F94B0000C12800006125000099
:10205000F94B0000F94B0000F94B0000FD4B00006C
:10206000F94B0000DD350000F94B0000F94B000092
:10207000F94B0000F94B0000ED350000F94B000072
:10208000F94B0000F94B0000BD350000C7350000DA
:10209000D1350000F94B0000F94B0000F94B00006E
:1020A000F94B0000F94B0000F94B0000F94B000020
:1020B0000000000010B5064C2378002B07D1054B1B
:1020C000002B02D0044800E000BF0123237010BDA4
:1020D0003001002000000000A88F000008B5084B68
:1020E000002B03D00748084900E000BF07480368F9
:1020F000002B03D0064B002B00D0984708BDC046EC
:1021000000000000A88F0000340100202001002002
:10211000000000007047000010B50024201C0221C0
:10212000013402F0F1FF172CF8D12020022102F037
:10213000EBFF2120022102F0E7FF2324201C0221D3
:10214000013402F0E1FF2A2CF8D11920022102F01B
:10215000DBFF1A20022102F0D7FF0820012102F044
:10216000D3FF0820002103F029F80920002102F004
:10217000CBFF0920012102F0C7FF0920012103F054
:102180001DF80F20012102F0BFFF0F20002103F0F6
:1021900015F80021132002F0B7FF0C2002F0EEFE2C
:1021A0000C20002103F00AF80C20012102F0ACFF02
:1021B000164C9621201C890101F0FEFA012108200D
:1021C00002F0FCFF124802F061FD0820002102F03D
:1021D000F5FF1049201C02F0E7FA201C01F0EDFA8F
:1021E0000D4801F0C7FD0D4C0021201C00F0EAFA5B
:1021F0000022201C131C0A2100F024FA201C1421A8
:102200000222112300F06AFA10BDC0462C070020FC
:10221000204E00002C7F0000F70B00204D01002015
:10222000F0B5B54D85B02C78012C32D0002C02D001
:10223000022C4FD04EE1B14800F036FBFA21221CAF
:102240008901AE4800F078FBAD4BAE4E1978301CDA
:1022500000F0BAFCAC4F387000F020FC211C301CA0
:1022600000F00AFD387000F019FC211C301C00F051
:10227000F9FE387000F012FCA449301C00F090FE0A
:10228000387000F00BFC01239C482B7000F00CFB15
:1022900020E19A4C201C00F007FBFA218901002262
:1022A000201C00F049FB974800F038FD964E307036
:1022B00000F0F4FB3378201C002B03D100F0EAFA85
:1022C000022305E000F0E6FA914802F0DFFC00236B
:1022D0002B70FFE08F4F012100240F203C7002F093
:1022E0006DFFFA20400002F0D1FC132002F09AFEAC
:1022F000211C051C0F2002F061FF281C03F042FE88
:10230000854903F085FB8549051C03F0ABFC04F00F
:1023100065FF724B704A04F0ADF9714A714B04F0DD
:10232000CDFC714A714B03F089FE04F0A9FF002136
:10233000041C03F053F900280BD17949201C03F049
:1023400061F9FE21002805D1201C03F065F9C1B216
:1023500000E001216B4C201C00F050FC6A4E3070F4
:1023600000F09CFB281C6F4903F06EF96E4903F0E6
:102370004FFB0021051C03F031F900280BD1281C6C
:10238000694903F03FF9FF22002805D1281C03F01A
:1023900043F9C2B200E00022644901A805F01EF929
:1023A000381C01A905F03CF90021201C00F064FC58
:1023B000307000F073FB5E4B3A1C1978201C00F063
:1023C00017FD307000F06AFB35784C4F002D24D19A
:1023D000584B1D60584BE35C002B37D0574A291CE3
:1023E000A018102205F040FA72280CD101210C200F
:1023F00002F0E4FEFA20C00002F048FC0C20291C88
:1024000002F0DCFE22E0612820D1381C00F042FA04
:10241000FA21381C89002A1C12E00123062D02D063
:10242000022D03D10023344A13700FE0414A136890
:10243000591C1160042B09DDFA21381C8900002287
:1024400000F07AFAFA20C00002F020FC01210820F6
:1024500002F0B4FE9620400002F018FC0021082093
:1024600002F0ACFE224A234B201C00F03BFE3070F1
:1024700000F014FB324D281C00F0A2F83C2105307E
:1024800003F084F8281CC9B200F03AF9281C022194
:1024900000F074F8281C2B4900F082F80021082075
:1024A00002F08CFE381C00F0FFF9281C00F07EF8CA
:1024B000FA2189010022381C00F03EFA201C00F0AD
:1024C0004BFE307000F0EAFA201C00F025FB307063
:1024D00000F0E4FA05B0F0BD333333333333F33F68
:1024E0000000000000C06F40000000000000F03F4E
:1024F00080841E00000000004C0100205C010020D0
:10250000070000206001002054010020327F0000FD
:1025100010270000000000200000B03A00004040FA
:1025200000007E430000204100007F43367F000012
:10253000080000205001002022040000BD0300001C
:102540004D0100201521000008B5024800F004F8F4
:1025500008BDC0464D0100200023037070470000F5
:1025600008B5044B1B68002B00D09847024B012292
:102570001A7208BD58010020001400400378002B97
:102580000AD0064B081C197F0722104091430143D3
:1025900019779A7AD209FCD17047C04600140040DE
:1025A000014B19607047C04658010020034B0421BD
:1025B0001A690A431A6130BF7047C04600ED00E057
:1025C000024B98690005800E7047C0460014004019
:1025D0000378002B0AD0064B081C19693F221040D3
:1025E0009143014319619A7AD209FCD17047C046E0
:1025F000001400400378002B0BD0064B3F22114003
:102600008A01186904490140114319619A7AD20973
:10261000FCD17047001400403FF0FFFF0378002B0F
:102620000BD0064B1F2211400A03186904490140D0
:10263000114319619A7AD209FCD170470014004005
:10264000FF0FFEFF70B5161C0278041C0D1C002A3B
:102650000AD0191CFFF7BCFF201C311CFFF7CAFF72
:10266000201C291CFFF7DAFF70BD00000378002B47
:102670000BD0064B1F2211404A041869044901403F
:10268000114319619A7AD209FCD1704700140040B5
:10269000FFFFC1FF0378002B0BD0064B0F22114028
:1026A0008A05186904490140114319619A7AD209CF
:1026B000FCD1704700140040FFFF3FFC0378002B63
:1026C00009D0054B8A0619698901890911431961E5
:1026D0009A7AD209FCD170470014004070B51D1CD5
:1026E0000378041C161C002B09D0FFF7BFFF201C29
:1026F000311CFFF7CFFF201C291CFFF7DFFF70BD47
:102700000378002B0BD0064B3F2211408A019869B9
:1027100004490140114399619A7AD209FCD170476A
:10272000001400403FF0FFFF0A4B0B4A9A605A78B2
:1027300052B2002AFBDB0949064A51605A7852B26C
:10274000002AFBDB0649034A51805A78D209FCD1A2
:102750007047C046000C0040020400000205110052
:1027600004420000044B02211A888A431A809A7A94
:10277000D209FCD17047C04600140040044B02212E
:102780001A880A431A809A7AD209FCD17047C04647
:1027900000140040044B01211A880A431A809A7AD7
:1027A000D209FCD17047C04600140040044B0121FF
:1027B0001A888A431A809A7AD209FCD17047C04697
:1027C00000140040F7B52B4B0F1C9A6920210A43D7
:1027D0009A61294A294B0026051C9A82284CB74247
:1027E0000AD1284B1A7870231A4240D023881A073E
:1027F0003DD5226901260192281CFFF795FF281C70
:10280000FFF7B0FF281CFFF7C5FF62881E4B13407F
:1028100063801E4B2380A27A194BD209FBD11C4A3C
:1028200008211160C021890050580002000A505050
:10283000DA7901210A43DA711A7F07218A431A776C
:10284000A37ADB09FCD1281CFFF798FF281CFFF7AF
:10285000ADFF002F02D001232B70F7BD002EFAD060
:10286000074B019A1A61A37ADB09FCD1F3E73E1CFE
:10287000C2E7C04600040040CE0600000008004049
:102880000014004038040040FFBFFFFF080A0000AA
:1028900000E100E0034BA5221A72DA79D209FCD1DB
:1028A0007047C04600100040044B02211A788A434A
:1028B0001A70DA79D209FCD17047C0460010004086
:1028C000064B02211A788A431A70D979034AC9093A
:1028D000FBD1937901210B439371704700100040A5
:1028E0000E4B0F4A30B59A600E4A5A605A78D20998
:1028F000FCD10D4A094B0D495A800422CA670C4B82
:10290000C02149005A50C02189005D58094C2C4013
:102910005C501A600123037030BDC046000C0040BB
:1029200002040000020311000342000004E100E081
:1029300000E100E0FFFF00FFF8B50378051C0F1C65
:10294000161C002B01D1FFF7CBFF4A4C002323704C
:10295000E379DB09FCD1484B9F4225DC002F23D0D3
:10296000FA235B00BF02FA21F818890002F0B8FDD3
:10297000424B98421CDC424B98421DDC414B984232
:102980001EDC414B98421FDC404B984220DCFF2864
:1029900022DC7F2824DC3F2825DC1F2826DC0F28AA
:1029A00027DD0123102226E080220B23D20122E022
:1029B00080220A2392011EE08022092352011AE09C
:1029C00080220823120116E080220723D20012E0A1
:1029D0008022062392000EE08022052352000AE0A6
:1029E0000423802207E00323402204E00223202264
:1029F00001E0002308220121002E24D060790B265B
:102A00000143617160780F218843304360706078C2
:102A10000B401B01014019436170237804210B43D3
:102A20002370E379DB09FCD1FA26B60056438023F4
:102A30009B00281CF618FFF72DFF23780222134372
:102A4000B612237010E020790143217160780F21C4
:102A50000B40884303436370237804218B43237026
:102A6000E379DB09FCD1DFE7E379DB09FCD1301C3A
:102A7000F8BDC046001000407F3E0000FF1F000070
:102A8000FF0F0000FF070000FF030000FF01000030
:102A9000014B00221A7070475C01002000B589B01C
:102AA00000236A461370082822D802F0C1FC0508EA
:102AB0000B0E1114171A1D0068460E4916E06846E1
:102AC0000D4913E068460D4910E068460C490DE0D9
:102AD00068460C490AE068460B4907E068460B491E
:102AE00004E068460A4901E00A49684604F0AFFD7F
:102AF00009B000BD4D8300006183000078830000B1
:102B00008C830000A1830000B8830000D083000004
:102B1000E5830000FB830000F0B5051CA4358FB0F1
:102B2000041C0021FA22281C04F0A2FC00210F2220
:102B300002A804F09DFC0AAE00210F2206A804F0B2
:102B400097FC0F220021301C04F092FC1A4B281C29
:102B5000FE33598A04F042FD184F02A8B98A04F0E6
:102B60003DFD3B1C5033198806A8543704F036FD50
:102B70003988301C04F032FDFA239B000193009643
:102B8000201C291C02AA06AB00F0C6FC012804D1B7
:102B90000B4BE0540B4BE05406E0022806D1084BE7
:102BA0000122E054074BE254002003E00338431EA7
:102BB000984101300FB0F0BD10870000E88400009C
:102BC0002A0400002B040000E1231B0210B543601F
:102BD000012301700374041CC82002F057F8201C64
:102BE00000F02EFB9620400002F050F8201CFFF76A
:102BF00093FF201CFFF790FF10BD0000F0B5051CEF
:102C0000A4358BB0041C0E1CFA220021281C04F0F1
:102C10002FFC00210F2202A804F02AFC00210F2221
:102C200006A804F025FC114AA4235B00D15A281CF5
:102C3000321C04F0D3FC0E4F02A8398804F0CEFCFD
:102C4000B98806A804F0CAFCC8230093201C06AB70
:102C5000291C02AA00F056FC0223012802D1054BD0
:102C6000E6540023181C0BB0F0BDC04610870000CE
:102C7000E88400004A030000F0B5061CA4368BB0BF
:102C8000041CFA220D1C301C002104F0F1FB002171
:102C90000F2202A804F0ECFB06A800210F2204F08A
:102CA000E7FB1A4BE35C012B02D0022B04D029E096
:102CB0000720854227D802E00720042D23D8144B93
:102CC0002A1C48331988301C04F088FC114F02A8D4
:102CD000398804F083FCB98806A804F07FFC6423DB
:102CE0000093201C311C02AA06AB00F00BFC01284B
:102CF00003D1094B0020E55405E00238431E9841FA
:102D0000013000E008200BB0F0BDC0462A040000EE
:102D100010870000E88400004B030000F0B5061C9B
:102D2000A4368FB0051C0021FA22301C04F0A0FB51
:102D300000210F2202A804F09BFB0AAF00210F2202
:102D400006A804F095FB0F220021381C04F090FB2C
:102D5000244B301CFE33598E04F040FC224C02A858
:102D6000218804F03BFCA18806A804F037FCA31DD1
:102D7000D98F381C04F032FCFA235B0001930097D2
:102D8000281C311C02AA06AB00F0C6FB01281DD18D
:102D90000F22002102A804F06BFB218B02A804F093
:102DA0001DFC4C340F22002106A804F061FB218891
:102DB00006A804F013FC0D4B281C02A906AA00F07B
:102DC000FAFA0138431E9841C0B208E0022805D043
:102DD0000338431E98410323181A00E001200FB066
:102DE000F0BDC04610870000E8840000204E0000BF
:102DF000F0B5644B071C99B00025A437C554039166
:102E0000041C291C161C381CFA2204F031FB291C56
:102E1000142204A804F02CFB291C142209A804F095
:102E200027FB0EA8291C142204F022FB039B072079
:102E3000DF2B00D9A4E0301C04F011FC85420BD23A
:102E4000735D1A1C303A092A03D9413B052B00D97E
:102E500091E00135EDB2F1E74B4B039A998A381CAA
:102E6000331C04F0BBFB494D04A8298804F0B6FBD1
:102E7000A98809A804F0B2FB2B1C48330EAE1988B0
:102E8000301C04F0ABFBFA239B0001930096201C3E
:102E9000391C04AA09AB00F03FFB012865D10021D1
:102EA000142204A804F0E4FA0021142209A804F072
:102EB000DFFA13AF00211422301C04F0D9FA1422D7
:102EC0000021381C04F0D4FAA98904A804F086FB78
:102ED000298C09A804F0BBFB0235698F301C04F073
:102EE000B6FBE98F381C04F0B2FB294B0097019325
:102EF000201C04A909AA331C00F0E8F9051E012DC5
:102F00002AD1FA22201C2349520000F04CFA231C3B
:102F1000A2331B88002B1DD01F4E201C311C1130EA
:102F200004F0B8FB04F056FAEF239B00E054311C88
:102F3000002004F0AFFB194B071CE61800216522A6
:102F4000301C04F095FA301C391C642204F08EFB0E
:102F50000C4BE554002013E00228FBD00520032D84
:102F60000ED0042D09D002200AE0022807D0032841
:102F7000F9D1062004E0072002E0281C00E001202F
:102F800019B0F0BD2204000010870000E8840000A2
:102F900020BF0200208400001F840000BD03000049
:102FA000F0B52C4E8BB0051C0C1C081C311C04F019
:102FB00044FB002806D0201C274904F03EFB0723D1
:102FC000002844D12E1CA436301C0021FA2204F023
:102FD0004FFA00210F2202A804F04AFA00210F2222
:102FE00006A804F045FA1D4B221C4C331988301CEE
:102FF00004F0F4FA1A4F02A8398804F0EFFAB988FD
:1030000006A804F0EBFAFA235B000093311C281C9D
:1030100002AA06AB00F076FA061E012E13D1201C80
:103020000C4904F00AFB002802D1CF235B00EE54C8
:10303000201C094904F001FB0023984207D1CF224C
:103040005200AB5403E0023E731E9E41731C181CD9
:103050000BB0F0BD23840000327F00001087000019
:10306000E8840000F0B5051CA4358BB0041C0E1CD0
:10307000FA220021281C04F0FBF900210F2202A8EB
:1030800004F0F6F900210F2206A804F0F1F9124B22
:10309000321CFE33D98A281C04F0A0FA0F4F02A874
:1030A000398804F09BFAB98806A804F097FA6423DB
:1030B0000093201C291C02AA06AB00F023FA012869
:1030C00003D1074B0020E65403E00238431E984129
:1030D00001300BB0F0BDC04610870000E88400004E
:1030E00042020000F0B5061CA4368BB0071C141C6D
:1030F000301C0021FA221D1C04F0BAF902A800219C
:103100000F2204F0B5F906A800210F2204F0B0F94F
:103110000F4AA2235B00D15A301C221C2B1C04F046
:103120005DFA0C4C02A8218804F058FAA18806A880
:1031300004F054FA64230093381C06AB311C02AA35
:1031400000F0E0F9023843425841C0B20BB0F0BD84
:1031500010870000E884000030B5051CA43585B058
:10316000041C0021281CFA2204F082F96846002180
:103170000F2204F07DF900232B70231C5522A53368
:103180001A700A4B6846198804F028FA201C291C7A
:10319000022200F0CCF9201C6946642200F003F9F9
:1031A0000138431E9841400005B030BDE88400005E
:1031B000074BE12212025A60064A07499A606422CC
:1031C000DA6001221A7400225A5404495A54704792
:1031D00060010020881300002B0400002A04000076
:1031E000F7B5181C0191161C1F1C04F038FA051CB9
:1031F0000020041CAE4210D3731B9C420AD8019BD2
:10320000391C18192A1C04F01BF9002804D00134B9
:10321000A4B2F1E7002000E00120FEBD08B5031CC8
:10322000002904D10448191C00F0C6FA03E0034841
:10323000191C01F009FC08BD2C0700208C0500209A
:1032400008B5031C19784068FFF7E8FF08BD0000C7
:1032500008B5031C002904D1191C044800F01AFA0F
:1032600003E00348191C01F015FC08BD2C070020E1
:103270008C05002038B5041C0D1C2078002804D0D3
:10328000291C0134FFF7E4FFF7E738BD08B5002833
:1032900003D1044800F008FA02E0034801F0EBFB18
:1032A00008BDC0462C0700208C05002008B500286A
:1032B00003D1044800F020FA02E0034801F0E5FBE6
:1032C00008BDC0462C0700208C050020F0B5051C69
:1032D00085B01135041C0391019200219022281C15
:1032E000029304F0C5F8231CA23300261E8001F0CF
:1032F000C7FC371C009001F0C3FC009BC01A0B9B5D
:10330000984245D22078FFF7C1FF00280ED08E2FBB
:103310000CD82078FFF7CAFFE3195874231CA23396
:103320001A887E1CB6B201321A80371C231CA233C5
:103330001E88201C291C321C039BFFF751FF00280C
:1033400028D1019B002B06D0201C291C321CFFF722
:1033500047FF002820D1029B002B06D0201C291CEF
:10336000321CFFF73DFF002818D10A9B002B06D026
:10337000201C291C321CFFF733FF002810D101F05C
:103380007FFC009B9842B6D201F07AFC0090B2E735
:10339000002006E0012004E0022002E0032000E01B
:1033A000042005B0F0BD07B50023019200931A1C5C
:1033B000FFF78CFF0EBD13B51C1C00230093019476
:1033C000FFF784FF16BD000070B5002803D10E483A
:1033D00000F070F916E001F053FC051C0B4C201CAA
:1033E00001F049FB261C002804D001F049FC401BD9
:1033F000632803D9301C01F039FB03E0201C01F0E5
:1034000044FBEBE770BDC0462C0700208C05002074
:10341000F0B585B003920293037C041C0D1C002BB5
:1034200002D00078FFF7D0FF2178281C261CFFF778
:1034300021FF1136E06801F029FC00219022301CA8
:1034400004F016F8231C0025A2331D8001F018FC9F
:103450002F1C019001F014FC019BC01A0C9B984298
:1034600045D22078FFF712FF00280ED08E2F0CD8FF
:103470002078FFF71BFFE3195874231CA2331A8826
:103480007D1CADB201321A802F1C231CA2331D8873
:10349000201C311C2A1C039BFFF7A2FE002828D108
:1034A000029B002B06D0201C311C2A1CFFF798FE23
:1034B000002820D10A9B002B06D0201C311C2A1C7E
:1034C000FFF78EFE002818D10B9B002B06D0201C86
:1034D000311C2A1CFFF784FE002810D101F0D0FB1C
:1034E000019B9842B6D201F0CBFB0190B2E70020DD
:1034F00006E0012004E0022002E0032000E00420B6
:1035000005B0F0BD1FB5002400940194069C029400
:10351000FFF77EFF04B010BD1FB5069C0094002489
:103520000194079C0294FFF773FF04B010BDF8B537
:10353000037C041C0E1C171C002B02D00078FFF724
:1035400043FF351CAB1B9BB2BB4205D228782178C8
:10355000FFF77EFE0135F5E7E06801F097FBF8BD67
:10356000154B70B58000C45801262268257E937BD8
:103570001D40637E1D40354204D0201CA36898473F
:10358000226896730226354204D0201CE3689847CF
:10359000226896731026354204D0201C2369984770
:1035A000226896732026354204D06369201C984710
:1035B00023689E7370BDC046280D002008B500200A
:1035C000FFF7CEFF08BD08B50120FFF7C9FF08BD12
:1035D00008B50220FFF7C4FF08BD000008B5024887
:1035E00001F082FA08BDC0468C05002008B50248EB
:1035F00001F07AFA08BDC04650060020F7B5164F14
:103600001649381C01F022F91549164801F01EF937
:103610001549164801F01AF91549164801F016F92E
:103620001549164801F012F9154D03260124281CEE
:10363000144901F00BF9391C0096231C0194002257
:10364000114801F02DFA0096291C01941F221E2317
:103650000E4801F025FAF7BD1807002000080042C7
:10366000000C00421C070020001000422007002030
:103670000014004214070020001800422407002014
:1036800028070020001C00428C0500205006002066
:103690003F20704713B502686B46D97107335468F1
:1036A000191C0122A04716BD08B50069022100F0CF
:1036B00033FC08BD08B50069032100F043FC08BDD8
:1036C00038B50D1C041C131C006903212A1C00F0D2
:1036D00035FD002801D10123636038BD10B5054CCC
:1036E00023685A1C04D10368DB6898472060031CD8
:1036F000181C10BD5C000020074A08B51368591C4F
:1037000004D0012149421160181C03E00069022124
:1037100000F006FD08BDC0465C00002008B5037837
:103720000349023303704222024800F0BDFD08BD88
:1037300018000020F70B002010B50178031C427818
:103740000020A12908D1212A2FD118481849072281
:1037500000F0AAFD012028E0212926D1202A05D148
:1037600013490722114800F033FC04E0222A10D14B
:103770009A780F4BDA710E4B96221968D20091425B
:1037800010D1DC7901231C400CD1FA2001F016F88D
:103790000AE0232A09D1DA789B7812021A43054BF2
:1037A0001A6002E001F010F8002010BDF70B0020B5
:1037B0000C0000201400002070477047064BFA21CF
:1037C00089009960054900220831196004495A604E
:1037D00019611A767047C0462C070020C08C000083
:1037E000F70B002070B5C2B219495301CB189E687F
:1037F000184DC0242E40A40526439E60164E80011D
:1038000009683018083258605201505C0726B043EE
:103810000126304350549E6935402C439C610F4C27
:103820005C61505C7024A0431024204350549C6879
:103830000B488A18204080246403204398609868CD
:103840004021800B8003986053790B43537170BD06
:10385000000C0020FFFFFF8F180A002054080020F2
:10386000FF3F00F038B5041C08CC01211A78051C74
:103870000A431A708022201C0021520003F0F8FD38
:103880002B689A78D107FCD45C6238BD134BF0B535
:103890001B6899035A029B01C90ED20E5B0F1F29A8
:1038A00000D105211F2A00D11D22072B00D103239F
:1038B00004688E01278D0A491F253940314321852F
:1038C00001682A400C8DAC4322430A850268190323
:1038D000108D044B03400B431385F0BD2460800022
:1038E0003FF8FFFFFF8FFFFFEFF31083036001231B
:1038F000436072B670470368002B02D162B6BFF313
:103900006F8F704737B50569041C6846002D12D1CA
:10391000FFF7EAFF019B013B03D3621DD57FEDB2A8
:10392000F9E768460193FFF7E6FF0020854217D0CC
:10393000206AE36913E0FFF7D7FF019B0025013BF5
:1039400004D3221C34321578EDB2F8E768460193AF
:10395000FFF7D1FF0020854202D0206BE36AC01A36
:103960003EBD0000436810B51A68037A01215B016F
:10397000D318FF339A7A0A439A72037A42685B013A
:10398000D318C2689C6891040B4A090922400A4373
:103990009A60037A42685B01D3189A684021920BBF
:1039A00092039A6043681A68037A08335B01D3185C
:1039B0001A790A431A7110BDFF3F00F0F7B5056987
:1039C000041C0E1C171C6846002D1FD1FFF78CFF2E
:1039D000019B013B5A1C06D0621DD17F5A1E002953
:1039E0003AD0131CF6E768460193FFF784FF0025E1
:1039F000E369BD4235D0226A934232D25A1CE26159
:103A0000A269D3181B7873550135F1E7FFF76CFFF6
:103A1000019B013B5A1C08D0221C343215785A1ED7
:103A2000EDB2002D18D0131CF4E768460193FFF7A0
:103A300062FF0025E36ABD4226D0226B934241D348
:103A400022E0621D0021D17730321678581E8E4256
:103A500014D1031C5A1CF4D168460193FFF74BFFA5
:103A600038E0226A934235D10023E36101232361C8
:103A70006846FFF739FF019B013BEBE71170201C03
:103A80000193FFF76FFFF6E7226B934222D10023E9
:103A9000E36223616846FFF727FF019B013B5A1C45
:103AA000DAD0221C34320021117001321678581EEF
:103AB0008E4201D1031CF2E71170201C0193FFF725
:103AC00051FFEAE75A1CE262A26AD3181B787355C9
:103AD0000135AFE7281CFEBD37B54368027A1B6885
:103AE000083252019A18041CD0790123FF21184290
:103AF00053D0D371A068656962680140002D20D160
:103B000049015218916863618904890C2162A16A94
:103B100068465160621DD377FFF7E6FE019B013BCB
:103B20005A1C33D0221C34321178581EC9B20132CB
:103B3000002903D001930123137023E01170031CAB
:103B4000EEE74B01D3189A68A5699204920C2263A0
:103B50000022626168465D60FFF7C6FE019B013B83
:103B600001E011702B1C591C10D0221C3432012092
:103B70001070621DD17F5D1EC9B230320029F0D0B5
:103B8000019310706846FFF7B6FE06E068460193A1
:103B9000FFF7B1FE201CFFF7E5FE37BD37B5002368
:103BA0006C46E3710734201C0D1CFFF7B7FD2B6832
:103BB0001818286001F0DAFB211C01F091FB2B683A
:103BC0001818286020783EBD03290BD10D4BB22276
:103BD0001B685200985C802149420143995402219C
:103BE00068220CE001290CD1064B92221B6852007E
:103BF000985C802149420143995402212822FF32D6
:103C000099547047000C002038B5304B0024012136
:103C1000051C1A201C7001F077FA1A20012101F00E
:103C2000CDFA2B4B192001211C7001F06DFA1920DF
:103C3000012101F0C3FA274B2021DA6901200A4350
:103C4000DA61254B06241A7802431A70234B0F229F
:103C500019789143197019782143197020490C780B
:103C60002043087019780A401A701A7860210A43B4
:103C70001A701C4B1C4A5A805A78D209FCD11B4836
:103C800000F0F8FF1A4C201CFFF7ECFD201CFFF79A
:103C9000FDFD23687F2219780A401A701A780421E2
:103CA0000A431A701A890C218A431A81C121114AC8
:103CB000890050580002000A5050802111601A7883
:103CC00002210A431A7001232B7038BD140A002008
:103CD000FC0B002000040040584400413C440041DB
:103CE00059440041000C00400640000035470000E8
:103CF000000C002000E100E00078002810D0094B03
:103D000001211B681A898A431A811A8B08210A43E8
:103D10001A831A8B04210A431A83034B00221A6068
:103D20007047C046000C0020040D00200F4B9A691C
:103D3000920B92039A611B680222FF331A729879E0
:103D40008022524202439A711A7A9007FCD5084B9E
:103D5000081C997A7F221040914301439972997A05
:103D6000802252420A439A727047C046000C0020DB
:103D7000005000410078002805D0034B01211B684A
:103D80001A890A431A817047000C002010B50B797C
:103D90000C1C002B0BD1081CFFF7CEFC002804D113
:103DA000094B9A69920B92039A6101200BE001F092
:103DB000DDFA211C01F0C8FA0028F6D1024B9A69FD
:103DC000920B92039A6110BD000C0020F8B50D1CF7
:103DD000832A16D1CAB242495301CB189C69414883
:103DE000AD012040C024A405204398613E4808321C
:103DF00045195D610B685201D15C70208143402000
:103E000065E0022A45D1382000F07EFF374B344F61
:103E10008026036076000023421D03620361436134
:103E2000C36147608560C660D3772F32041CC362CC
:103E300003631370301C537003F0F8FAA061301C58
:103E400003F0F4FAFF232A1C1A405201A062BF18A3
:103E5000B968244A07260A40C02189050A43BA6086
:103E6000A16862681940126808314901885CAD0098
:103E7000B043032630438854A16862680B405B015D
:103E8000A169D3185960201CFFF76CFD184BEC504A
:103E900025E0822A1ED1CAB211495301CB189C6970
:103EA0001048AD012040C024A405204398610E486D
:103EB000083245195D610B68520199180C79802010
:103EC000404220430871D15C70208143302001437F
:103ED000D15404E0002A02D1081CFFF783FCF8BD8E
:103EE000000C0020FFFFFF8F54080020F08C000022
:103EF000D80B002038B5051C0124064BA200D2586F
:103F0000002A06D0211C281C0134FFF75FFFE4B211
:103F1000F3E738BD6000002008B5084B8A00D05890
:103F2000002803D003689B68984706E0C9B2044B99
:103F30004901591888688004800C08BDD80B0020FE
:103F4000000C002010B50C1CFFF7E6FF00280CD079
:103F5000064BE1B21B680831490159184A798023A0
:103F60005B4213434B710223CB7110BD000C002048
:103F700070B5CAB2134B144854018901591803197A
:103F800059609D681149083229408025AD022943B6
:103F9000996099684026890B8903996003685101EB
:103FA00059180D7935430D715101591889794D060C
:103FB000FAD551015918C979CD07FAD50419A06865
:103FC000C0B270BD180A0020000C0020FF3F00F0B6
:103FD00038B50C4B141C1B680D1CFF335A7940215B
:103FE0000A435A710021FFF7C3FFA04200D9201CE9
:103FF0000023A34204D0044A9A5CEA540133F8E750
:1040000038BDC046000C0020180A002010B5C9B207
:104010000C48490143189A689204920C3F2A08D927
:10402000141C9A68403CA404920BA40C92032243F3
:1040300002E09A68920B92039A6041188868C0B2B5
:1040400010BDC046000C0020F0B51C1C2F4B85B0E5
:104050001B68061C0D1C0292002B51D02C4F397886
:10406000C9B2002902D1192001F0A8F864233B70DD
:10407000284BAA00D058002805D0036802995B6835
:10408000221C984740E0301C291CFFF745FFA04246
:1040900004D2301C291CFFF73FFF041C291C301CD4
:1040A000FFF7B4FF1C4FE9B24A010191396803924E
:1040B0008B18FF335A7A01210A4318495A72AB010F
:1040C000C9180298221C03F0CAF9002C1BD0301C1E
:1040D000291CFFF721FF002815D1019B3A680833FE
:1040E0005B01D31819794020014319710121D9715D
:1040F00003995318FF339A7A01210A439A7202E016
:104100000120404200E0201C05B0F0BD040D00205D
:10411000FC0B0020D80B0020000C0020180A002007
:1041200013B56C460734221C0123FFF78DFF0128CD
:1041300001D1207801E00120404216BDF0B51C1CE1
:104140003F4B85B01B680E1C0292002B6AD0802367
:10415000DB019C4266D83B4D2978C9B2002902D1C7
:104160001A2001F02BF8642300222B700092002CFF
:1041700056D0354DF7B22B6801933B1C0833019A9A
:104180005B01D3189B79DB091AD0304B3049186892
:1041900001F058F92F4B1721584301F053F93B1CFC
:1041A0000833019A5B01D318DB799A0708D42A4BAC
:1041B0009A5D002A38D1421E002835D0101CEEE747
:1041C000254B00229A55251E3F2D00D93F25234A15
:1041D000B301D318181C02992A1C039303F03FF96A
:1041E000194A7B01D318039AA9045A619A69890C68
:1041F000920B92030A439A613B1C019A08335B01BC
:10420000D3180222DA715979802252420A435A7134
:10421000009B029A5B1952190093641B0292A6E755
:1042200000980BE0012008E001229A557B01ED186F
:10423000AB69101C9B0B9B03AB61404205B0F0BD0A
:10424000040D0020140A0020000C00208C00002027
:1042500040420F00701101004C080020540800205B
:1042600070B50E4D1C1C8B01ED18281C0E1C111C6A
:10427000221C03F0F4F8F6B20949760189194D6160
:104280008A69084B201C13408B618B69A2049B0B2D
:10429000920C9B0313438B6170BDC04654080020F1
:1042A000000C0020FF3F00F0F7B5114B01901B7888
:1042B0000F1C141C002B19D10E4B1E78002E01D19F
:1042C000151C08E00C4D0D482E888019361903F096
:1042D000C6F82E800AE0002D08D0BA192B1C0198D0
:1042E0000021FFF7BDFF36182D1AF4E7201CFEBD94
:1042F000F60B0020F40B00204A080020490700209C
:10430000F8B50E1C00AF151E012D28D9D31DDB08F2
:10431000DB006A46D21A9546081C03F0A0F901306A
:104320006C4640000323207063700222AA420ED222
:104330003378002B0BD0511CC9B20136A354A942CB
:1043400004D0002302326354D2B2EFE72A1C05489E
:10435000211CFFF7A9FF431E9841C0B200E00020D6
:10436000BD46F8BDF70B002008B5044B00221A70BB
:10437000034B04491A88FFF797FF08BDF40B002090
:104380004A08002049070020F0B5204A87B00123E1
:104390000026009102A91370051C0296FFF7FEFB90
:1043A00003AC092701903A1C201C311C03F060F873
:1043B00002236370A023E371FA232372029B01227C
:1043C000DB196380019B62712371104A009B277087
:1043D0001670BB4205D1281C211C1A1CFFF764FF74
:1043E00011E00B4B01221A700A4B211C3A1C281CAD
:1043F0001E800296FFF758FF281C02A9FFF7CEFB8C
:10440000281CFFF7B1FF012007B0F0BDF60B00201C
:10441000F40B00204A08002070B5CE788AB0051C45
:104420000C1C022E08D1C9882348FFF7ADFF031CDE
:10443000581E8341D8B23DE000F098FF211C00F0E7
:1044400064FF002803D0C3171B1AD80F32E0012ED7
:1044500004D1E2881949112A27D823E0032E29D153
:10446000A278002A05D11649E2880B78934219D820
:104470001BE0022A03D1A279281C124904E0012A78
:1044800005D1A2791049281CFFF73AFF12E0032A50
:1044900010D100F06BFF01A900F047FFA279281CA2
:1044A00001A9F1E7D2B2002A00D10A78281CFFF74F
:1044B000FBFE01200AB070BDF70B00200E8D00003E
:1044C0000A8D0000208D0000008D000073B5051CD2
:1044D00048780C1C0B2878D800F0AAFF081C772815
:1044E000773E4306474B686F00206FE0097801AACA
:1044F000002903D111705170281C09E000231370AA
:104500005370334B1B78012B00D11370281C0021F2
:1045100002234FE08A780023012A04D101AA1370F4
:1045200053702C4BEEE72A4A137049E08E78012E27
:1045300007D1284B01AA00211E701170281C331CC2
:1045400038E0002E08D1224A01231370224A9169D3
:10455000890B8903916138E0A178281CFFF7E6FBFD
:1045600033E0281CFFF758FF30E0281C00211B4ACD
:104570001FE00A780020D30628D1281CFFF7BAFCD8
:10458000A2781549154B02241A600A682A23FF33C2
:10459000D05C2043D0544A20FF30145C01231C43DC
:1045A00014548A69920B92038A610EE00C4A281C0B
:1045B00000210123FFF754FE07E08A78084B1A60B8
:1045C000054B9A69920B92039A61012076BDC04611
:1045D00048070020F50B0020000C0020040D0020EF
:1045E000F80B0020F8B54B4B071C1C78002C00D0B2
:1045F0008EE0494D2868838B19070DD5201CFFF7E5
:10460000F1F82B6810201A1CFF32917A0143917245
:10461000424A146008229A832B689A8B50071FD550
:1046200004229A833E4B1A78002A0AD01A78013A5B
:10463000D2B21A701B78002B03D11A20012100F08E
:10464000BDFD384B1A78002A0AD01A78013AD2B246
:104650001A701B78002B03D11920012100F0AEFD48
:104660002B68FF331A7AD10626D510221A725A798E
:1046700040210A432C495A710A786023381C1A4297
:1046800002D1FFF723FF01E0FFF780FB002806D0EF
:104690002B688022FF33997952420A4301E0234B71
:1046A00020229A712B68FF331A7A500604D54022D3
:1046B0001A72597A0A435A722968FE230E8C002412
:1046C0001E40E1B2002E23D0321C012322411A42A7
:1046D00016D0221C2868083252018218D07918425C
:1046E00003D1D279DA401A4207D0114BA200D05838
:1046F000002809D003681B6898470123A3409E4304
:104700000134092CDDD103E0381CFFF75DFAF4E732
:10471000F8BDC046F40B0020000C0020040D002062
:10472000140A0020FC0B0020180A0020FF50004152
:10473000D80B002008B50248FFF754FF08BDC0465B
:10474000F70B0020014A024B1A60704700500041ED
:10475000000C0020F7B58A18061C0D1C01920C1CD9
:10476000019B671B9C4207D0336821781B68301C73
:10477000984701340028F3D1381CFEBD38B5051C1C
:104780000C1C081E07D002F06AFF2B68021C5B6835
:10479000281C211C984738BD08B50249FFF7EEFFD9
:1047A00008BDC0462084000038B5041CFFF7E6FFB2
:1047B000051C201CFFF7F0FF281838BD014B1860BE
:1047C0007047C04688000020024B012252421A6006
:1047D0007047C04688000020154A1368581C25D031
:1047E000013B1360002B21D172B6124A124B0432E6
:1047F0009A4207D8BFF34F8F104A114BDA60BFF3CC
:104800004F8F11E00F4B197DC807FBD5188B202166
:10481000FF319208520001431983DA610A4A1A8073
:104820001A7DD107FCD5E5E7C046FDE77047C046D5
:104830008800002000200000030200000400FA05A8
:1048400000ED00E00040004102A5FFFF016070475D
:10485000F7B508AC267804689D1E27686C1EA54134
:10486000ECB2920705683A4327063A432A60026889
:10487000072529405068B501002C00D05C0329436E
:1048800001430C435460F7BD30B50368C0251C6874
:10489000AD0312052A402243C024A402090421408A
:1048A0001143196003685A6814435C6030BD0368A3
:1048B00001211A680A431A6002681168012319422B
:1048C000FBD1D1691942F8D17047036802211A68F7
:1048D0000A431A600268D3699907FCD470470368D9
:1048E0001A7ED10702D41A7E9107FCD5704703685F
:1048F00000225A8370470368187E4007C00F704734
:104900000368187EC009704703688022197E5242EE
:104910000A431A7670470368188DC0B2704703685F
:104920001A7E01200242FBD0198570470368224A93
:1049300030B5934211D0214A934211D0204A93427C
:1049400011D0204A934211D01F4A934211D01F4ADE
:10495000934230D10E2319220DE0092314220AE0DC
:104960000A23152207E00B23162204E00C2317224A
:1049700001E00D231822DCB2154901209B08A0405C
:104980009B0008605B180320C021890004405D582B
:10499000E000FF248440A5432C1CC0258540281C32
:1049A000204358508023DB011A430A4B5A805A781F
:1049B00052B2002AFBDB30BD00080042000C00426E
:1049C000001000420014004200180042001C004287
:1049D00000E100E0000C0040F8B5041C151C0E1CA2
:1049E0001F1CFFF7A3FF201CFFF761FFB1001C2273
:1049F0000A4069072368090C0A431A602268842365
:104A00009375012E1AD10821012D00D110210C4BD4
:104A100079431868C00000F015FD236807219A89C2
:104A20000140D2044903D20C0A439A81236800044E
:104A3000C20C9889400B400310439881F8BDC046D2
:104A40008C0000200120704708B50368014ADB692B
:104A5000984708BD1304000010B5041C0069FFF757
:104A600026FF201C143000F0B2FC10BD08B5006910
:104A7000FFF735FF08BD08B5143000F0C3FC08BDD2
:104A800008B5143000F0C7FC08BD08B5143000F0BC
:104A9000A5FC08BD08B50069FFF741FF012008BD6E
:104AA000F7B51D1C08AB1B78041C009309AB1B78E1
:104AB000161C019300234360FA239B008360094B7B
:104AC0000F1C08330360143000F062FC009A231CB2
:104AD000C03327619A70019A1E705D70201CDA70D5
:104AE000FEBDC046408D000010B5041C0069FFF7F4
:104AF00002FF002807D02069FFF70DFF011C201CD2
:104B0000143000F052FC2069FFF7FAFE002805D0AF
:104B10002069FFF7F9FE2069FFF7E9FE10BDF023D9
:104B2000081C18403038434258417047F0231B019D
:104B3000194080239B0099420CD0C0239B009942CE
:104B400006D080235B000520994204D0002002E0BB
:104B5000072000E0062070470F231940012905D0E7
:104B600002394B424B410220C01A00E0002070473E
:104B7000F0B5031C85B00391C033041C18271878C6
:104B80003B1C43431B4E0821F3185956151C00F0DB
:104B900045FB231CC133187808214743F619715689
:104BA00000F03CFB01210A1C039B2069FFF714FF66
:104BB000291C201CFFF7BAFF291C071C201CFFF72B
:104BC000CBFF291C061C201CFFF7A9FF391C0090F5
:104BD000331C20690122FFF73BFE231CC3331978E5
:104BE000013B1A782069FFF74FFE2069FFF76DFE41
:104BF00005B0F0BD6C880000FEE7000008B5034B6F
:104C00001B68002B00D0984708BDC046080D002047
:104C100038B50F490F4CA14204D100F079F800F0EB
:104C200053F80BE00C4D8D42F7D00023CA18E8185A
:104C3000A24204D2006804331060F7E7FEE7904216
:104C4000EBD0064B064A9342E7D2002204C3F9E7B1
:104C50000000002030010020AC8F00003001002057
:104C6000380D002008B500F02CF8002801D100F024
:104C70001DF808BD014B18607047C046080D0020A4
:104C8000014B18687047C0460C0D002070B5041E1B
:104C900008D0054B1D681E1C00F012F833685B1B22
:104CA000A342F9D370BDC0460C0D002008B5034BDC
:104CB0001A6801321A60FFF78FFD08BD0C0D002045
:104CC000704700207047704710B500F0D5F802F02B
:104CD00087FBFFF7F8FF0120FFF7D8FF084C201CE7
:104CE000FEF792FF201CFFF707F8FDF715FAFDF716
:104CF00097FA044B002BFAD000E000BFF7E7C0465C
:104D0000F70B00200000000008B502F08FFB08BD83
:104D100070B5494A1E21536802208B43034347491B
:104D200053608B69082423438B61454C454B9C821F
:104D30009C8A20439882101CDA689407FCD5424A6A
:104D4000012414701478E50704D53F4C647864B2EC
:104D5000002CF7DB01249460547864B2002CFBDB58
:104D60003A4D394C6560547864B2002CFBDB8225E7
:104D7000354CED016580547864B2002CFBDB0224D5
:104D80009C84DC68E606FCD5314D2E4CE562DD687E
:104D90002C4CEE06FBD5A58C2E4E3543A584DD6844
:104DA000284CEE06FBD5A58C02263543A584DC688D
:104DB0002506FCD5234CE4686606F8D5DC68E506D4
:104DC000FCD500249460547864B2002CFBDB224DA7
:104DD0001D4C656055781C4C6DB2002DFADB1E6AC7
:104DE0001E4D35401D621D6A8026B5431D6203239A
:104DF000A3601B4B636053785BB2002BFBDB00238B
:104E00000B72184A4B728B72CB72174BFF211A60D0
:104E1000164B174A1B6812685C01D20E21401143E1
:104E20009A06520F12020B1C1343124A1385436851
:104E300080221343436070BD0040004100040040E5
:104E40000C06000000080040000C004001050100B5
:104E5000B805FF7D040A000000070300FFFCFFFF08
:104E600003060100006CDC028C000020246080003E
:104E70002060800000400042314BFA21186810B5D4
:104E8000890000F0DFFA2F4B0138984224D82E4ACF
:104E90002E4B5060186AC0210002000A0906014327
:104EA00019620024072194601160196A80220902A6
:104EB000090A12060A431A62254BFC211A6A0A43A0
:104EC0001A62196AFC2292010A431A62196AA02224
:104ED000D2020A431A6200E0FEE7201C00210134DE
:104EE00000F012F9142CF8D11A4C63785BB2002B45
:104EF000FADB194B6380194B5A7ED209012AFAD08A
:104F0000E422D2009A803F22DA70597E134AC909FE
:104F10000129FAD0C0235B0100201361907000F0DA
:104F200053F863785BB2002BFBDB0D4A094B5A80C8
:104F30000C4BDA79D209012AFAD041225A7010BDFD
:104F40008C000020FFFFFF0010E000E000ED00E01B
:104F500000040040000C00401E40000000400042E1
:104F60002140000000480042914205D002D9891A30
:104F7000C84001E0511A8840704700000F4B3021B3
:104F800018600F4A0F4B0A2804DD988888439880E0
:104F90000C210DE0082807DD98888843011C20209B
:104FA000014399800A2103E09888014399800821F0
:104FB00011605A7ED209012AFBD07047940000206C
:104FC000900000200040004200B5144A517E131C9E
:104FD000C9090129F9D00138042813D81969104AE0
:104FE0000A401A615A780F218A4300F021FA03051A
:104FF00009070300012102E0032100E002210A4326
:105000005A700AE01169F0231B050B4313615378B2
:105010000F218B4302210B43537000BD004000421F
:10502000FFFFFFF010B5041E062C05D0072805D0A1
:10503000052804D80E3402E02C2400E02D24201C86
:10504000012100F0EBF80E2C0CD12A4BDA79D209B1
:10505000012AFAD01A7802218A431A70DA79D20921
:10506000012AFBD0244B5A7ED209012AFAD01822F9
:105070005443224A18691419217C1F22904311407D
:10508000021C0A431A61597E1B4AC9090129FAD038
:105090001178022001431170597E174AC90901296C
:1050A000FAD0117B02200143117301211176597E40
:1050B000114AC9090129FAD0117B02200143117359
:1050C0001A7ED107FCD50C4A508B80B2597E0A4A11
:1050D000C9090129FAD011780224A14311705A7E1E
:1050E000D209012AFBD0064B1968064B1A68FFF754
:1050F0003BFF10BD00480042004000426C880000A9
:10510000900000209400002010B51824021C201CE0
:105110005043274B1818007A40B2013046D003297B
:1051200044D8081C211C00F083F90233112162438A
:1051300098569A18C3011F4852681B189918403195
:10514000022008700121914059602FE06243985677
:1051500018499A185268C3015B1899184031062003
:10516000087001219140596099611FE051435A56DE
:10517000104859184B68D2011118C818403006243D
:1051800004700120984048600B49521850600DE0AF
:10519000624398569A18C301064852681B1899181A
:1051A00040310220087001219140996010BDC04635
:1051B0006C8800000044004110440041182358430B
:1051C000134AF0B5131808241C5701341FD0825617
:1051D000104ED2015D6801249019231C8668AB40F3
:1051E0001E420BD10E1C771EBE4140193440403088
:1051F000A50004780426B4432C430470002903D18D
:1052000005495218536002E0024E92199361F0BDB5
:105210006C880000004400411044004118224243C1
:10522000F8B52D4D0824AA181457031C621C50D041
:10523000481C00240C284CD800F0FAF8071E1E1E4B
:105240001E1E1E1E1E0A0A0A0A000124644240E0B5
:10525000092902D1181C002103E00A2904D1181CD5
:105260000221FFF751FF23E000240B2931D1181C44
:105270000121FFF749FF2CE018225343EA18526836
:10528000EB560120141C04405508DB01002C11D002
:10529000124C1B195D1930352E780C010F2131404D
:1052A00021439A18C9B229704032137818431070FC
:1052B00000240EE0094E0F279B195D1930352E781A
:1052C0009A18BE433143C9B229704032137818434B
:1052D0001070201CF8BDC0466C88000000440041DE
:1052E00070B544680E1C0025002C09D02368201CD2
:1052F0005B68311C9847002804DB2D18E468F3E74D
:10530000281C01E00120404270BD38B544680D1CE6
:10531000002C08D02368201C9B68291C9847002873
:1053200002D1E468F4E7201C38BD38B544680D1C90
:10533000002C07D02368201C291CDB689847E468F0
:105340002D18F5E72C7038BD38B544680D1C002CBD
:1053500008D02368201C1B68291C9847002803D10B
:10536000E468F4E7201C00E0012038BD064B012270
:10537000196810B51140054805D1022404700424B1
:10538000447041601A6010BD180D0020100D0020FF
:1053900010B50021041CA42202F06AF8221CA432D9
:1053A0000023201C1360536010BDF8B5051CA43504
:1053B0002E68041C0F1C701CA42100F087F8231C0D
:1053C000A8331B68994201D0A7552960F8BD021C7B
:1053D0000023A432A83013600360704738B5021C64
:1053E000041CA834A43223681268934207D0C55C19
:1053F000A421581C00F06AF8281C216001E001205B
:10540000404238BD031CA433A8301A680368D01A80
:1054100000D5A4307047031C021CA833A4321B68BB
:105420001268934201D0C05C01E001204042704705
:1054300002B4714649084900095C49008E4402BC27
:105440007047C046002934D00123002210B488429E
:105450002CD301242407A14204D2814202D20901A3
:105460001B01F8E7E400A14204D2814202D24900C4
:105470005B00F8E7884201D3401A1A434C08A04267
:1054800002D3001B5C0822438C08A04202D3001BFD
:105490009C082243CC08A04202D3001BDC08224314
:1054A000002803D01B0901D00909E3E7101C10BC38
:1054B0007047002801D00020C04307B4024802A171
:1054C0004018029003BDC046D90000000029F0D06A
:1054D00003B5FFF7B9FF0EBC4243891A1847C0460F
:1054E000002941D010B4041C4C40A44601230022E2
:1054F000002900D54942002800D5404288422CD3DB
:1055000001242407A14204D2814202D209011B01D5
:10551000F8E7E400A14204D2814202D249005B00D4
:10552000F8E7884201D3401A1A434C08A04202D33C
:10553000001B5C0822438C08A04202D3001B9C087D
:105540002243CC08A04202D3001BDC0822430028DF
:1055500003D01B0901D00909E3E7101C6446002CA5
:1055600000D5404210BC7047002806D003DB002065
:10557000C043400801E08020000607B4024802A1B1
:105580004018029003BDC046190000000029EBD06E
:1055900003B5FFF7A7FF0EBC4243891A1847C04660
:1055A0007047C0468446081C6146FFE71FB500F0FF
:1055B000E3F9002801D40021C8421FBD10B500F056
:1055C00069F94042013010BD10B500F0D5F900284E
:1055D00001DB002010BD012010BDC04610B500F059
:1055E000CBF9002801DD002010BD012010BDC04610
:1055F00010B500F079F9002801DC002010BD012071
:1056000010BDC04610B500F06FF9002801DA002087
:1056100010BD012010BDC0469E2110B5C905041C57
:10562000FFF7F0FF002803D1201C00F08BFC10BD19
:105630009E21C905201C00F015FB00F083FC80238F
:105640001B06C018F3E7C046F0B55F4656464D4608
:105650004446F0B446024500C00F85B00F1C760AE0
:105660002D0E804641D0FF2D26D080242404002119
:105670002643F6007F3D89468B46F90F7C02780071
:10568000640A000E00918A463CD0FF2834D0802363
:105690001B041C430023E4007F380193009F434612
:1056A000019A7B4049469C4611430F2900D971E07D
:1056B000764F89007F58BF46002E3ED10822022334
:1056C00091469B46D9E75A46341CC246019201993D
:1056D000022937D0032900D1CFE0012900D0ABE067
:1056E00053460B400022002632E0002E19D104213F
:1056F000012289469346C0E7221C531E9A4102327A
:105700000192CBE701270197002CC7D0201C01F0A4
:1057100043FE431F9C4076235B420021181A0191EF
:10572000BCE7301C01F038FE7625431F9E406D42D9
:1057300000232D1A99469B469FE70C230321994687
:105740008B469AE7D446012367463B40FF2200265A
:105750007602D205700ADB071043184305B03CBC43
:1057600090469946A246AB46F0BD80260023F6033C
:10577000FF22EDE700220026EAE78020C003064270
:105780003BD0044239D1061C26437602760A009BA0
:10579000FF22DDE7281A039076016401A64239D37F
:1057A000361B1A2201230120311C5B0076000029E0
:1057B00001DBB44201D8361B0343013A002AF3DC73
:1057C000741EA641341C1C43039A7F32002A27DD35
:1057D000630704D00F232340042B00D00434270197
:1057E00003D52B4B039A1C408032FE2A0BDD01238C
:1057F00061460B40FF220026AAE706437602760A9E
:105800004346FF22A4E7A40101236746660AD2B2F9
:105810003B409DE7039F1B22013F03970023C2E704
:105820007E23039F5B42DB1B1B2B07DD01236146AD
:105830000B40002200268BE7D446C5E7221CDA4045
:10584000039B9E339C40231C5C1EA34113435A07B9
:1058500004D00F221A40042A00D004335F0105D57A
:10586000012361460B400122002671E79E0162463A
:1058700001231340760A00226AE78026F6032643B6
:105880007602760A5346FF2262E7C046708D00001A
:10589000FFFFFFF74A02430270B55C0A550A430056
:1058A0004A001B0EC60F120EC90FFF2B05D0FF2A90
:1058B00008D0012093420BD070BD0120002CFBD1F9
:1058C000FF2AF6D10120002DF6D101209342F3D119
:1058D000AC42F1D18E4205D0002BEDD1201C441EEC
:1058E000A041E9E70020E7E74A024302F0B55C0A7D
:1058F000550A43004A001B0EC60F120EC90FFF2B9C
:1059000031D0FF2A34D0002B16D16042604184464A
:10591000002A14D0002820D18E4217D1934215DCE2
:1059200004DBAC4212D80020AC4212D2704270416B
:105930004042012318430CE0002AEDD194466F4207
:105940006F416046002805D1002FE5D07042012349
:105950001843F0BD0020002FFBD14842484140428F
:1059600001231843F5E7002CCBD002204042F0E79A
:10597000002DC8D0F9E7C0464A024302F0B55C0AE0
:10598000550A43004A001B0EC60F120EC90FFF2B0B
:1059900027D0FF2A29D0002B10D0002A15D19446F9
:1059A0006F426F416046002815D00020002F04D1BF
:1059B00048424841404201231843F0BD60426041E3
:1059C0008446002AECD00028F2D18E4211D07042D9
:1059D00001231843F1E7002FF7D070420123184349
:1059E000EBE70220002CE8D1D3E70220002DE4D120
:1059F000D1E79342EBDC04DBAC42E8D80020AC42B8
:105A0000DBD270427041404201231843D5E7C046C3
:105A1000F0B55F4656464D464446F0B44402460053
:105A200083B00F1C640A360EC50F002E41D0FF2E26
:105A300022D080231B0400201C43E4007F3E8246CA
:105A40008046391C4B007F02C90F7F0A1B0E8B4614
:105A50003BD0FF2B34D0802212041743FF007F3B42
:105A600000215A466A40019252460A430F2A63D8DF
:105A70007A48920082589746002C3FD10822022390
:105A800092469846DDE70195404602282AD1019AC0
:105A900001251540FF2300246402DB05600AED07A1
:105AA0001843284303B03CBC90469946A246AB46F7
:105AB000F0BD002C27D10420012282469046C0E789
:105AC000391C4A1E91410231CBE70121002FC8D079
:105AD000381C01F061FC431F9F4076235B421B1A78
:105AE0000021BEE7032800D1AEE001284FD1019884
:105AF00042461040C5B200230024CDE70C2303200A
:105B00009A4680469DE7201C01F046FC7626431FFE
:105B10009C4076420023361A9A46984691E78024A4
:105B20000025E403FF23B7E75B463C1C019388464E
:105B3000AAE73C1C8846A7E7250C24043A0C240C51
:105B40003F04F6183F0C211C231C794353436F4339
:105B50005543FB180A0C9B18B1469F4202D980227C
:105B60005202AD1809041A04090C521894011B0CB6
:105B7000611E8C41920EED181443AD012C4323019C
:105B800005D5012263080120144081441C434B4683
:105B90007F33002B2DDD600704D00F222240042A22
:105BA00000D00434220103D52D4B1C404B468033DA
:105BB000FE2B17DD019B01251D400024FF236BE711
:105BC0008020C003044208D0074206D1041C3C4395
:105BD0006402640A5D46FF235EE704436402640ACC
:105BE000FF2359E70198A4010125640ADBB20540AF
:105BF00052E77E235B424A469B1A1B2B05DD019B25
:105C000001251D400024002346E7221CDA404B46B4
:105C10009E339C40231C5C1EA3411343580704D0B1
:105C20000F221A40042A00D004335A0105D5019BE3
:105C300001251D40002401232EE701989C01012528
:105C4000640A0540002327E78027FF03019B3C43AC
:105C5000640201251D40640AFF231DE7B08D00008A
:105C6000FFFFFFF7F8B5C20F430244004D024800A2
:105C7000240E161C9B09000EC90FAD09FF2800D188
:105C80007EE0012779408A4258D0221A002A00DC9F
:105C900089E000281BD1002D00D075E0580704D002
:105CA0000F221A40042A00D00433590138D5013498
:105CB000FF2C00D183E09B0101225B0AE0B232405D
:105CC0005B02C405580AD20720431043F8BDFF2CDD
:105CD000E4D08021C9040D431B2A00DD2DE1291CDD
:105CE0002020D140821A95406A1E95410D435B1BCE
:105CF0005801D3D59B019F09381C01F04DFB421F71
:105D00009740944260DC141B1F231B1B3A1C9F40CE
:105D1000611C3B1CCA405F1EBB4113430024BDE70E
:105D20000122DB08E0B23240FF2C04D1002B7ED0F0
:105D30008021C9030B435B025B0AC1E7211A0029DA
:105D400046DD002826D0FF2CA8D08020C0040543C3
:105D50001B2900DDEFE0281C2027C840791A8D4060
:105D6000691E8D4105435B19590197D50134FF2CFC
:105D70005CD0734901221A400B405B0813438DE746
:105D8000002D00D07FE77CE7013A002AAFD0FF2C3E
:105D9000A2D183E7002D00D180E701390029E2D0AC
:105DA000FF2CD5D17AE7002A1ED1621CD2B2012A7B
:105DB0004EDD5F1B7A0126D5EF1A0E1C9CE70122EF
:105DC0003240FF2000237BE75D4BA41A3B4065E790
:105DD000002946D1611CC8B201282ADDFF2925D03F
:105DE000EB185B080C1C59E7002C13D0FF2818D0C7
:105DF0008024E404524223431B2A4DDD0123EB1A85
:105E0000041C0E1C74E7002F00D075E70022002050
:105E1000002390E7002B3BD0D243002AEFD0FF288D
:105E2000EAD12B1CFF240E1C38E70022FF200023A0
:105E300046E7002C5AD1002B77D0002D00D12DE75A
:105E40005B19580100D429E73D4A0124134025E796
:105E5000002C15D1002B2FD1002DD7D02B1C0E1CC0
:105E60001CE7002C21D1002B53D0C943002904D0BA
:105E7000FF284BD01B294FDD01235B19041C73E75E
:105E8000002B22D1002DD0D02B1C0E1CFF2405E7A7
:105E90002B1C041C0E1C01E71C1C2026D440B21A2B
:105EA00093405A1E93412343A9E7FF282ED0802414
:105EB000E40449422343DDE7002D00D1EEE65A1BFE
:105EC000500134D5EB1A0E1CE8E6FF24002D00D15A
:105ED000E4E68022DB08D203134204D0ED08154229
:105EE00001D12B1C0E1CDB00FF24D7E6002B0DD0AC
:105EF000FF24002D00D1D1E68022DB08D20313421B
:105F0000F1D0ED081542EED12B1CECE72B1CFF2441
:105F1000C4E62B1C041CC1E61C1C2027CC40791AAB
:105F20008B40591E8B412343A7E72B1CB6E6131E5B
:105F300000D0B3E66AE7012515E70125D7E6C0469C
:105F4000FFFFFFFB4302590A4300C20F1B0E002054
:105F50007E2B0DDD9D2B0CDC802000040143952B56
:105F60000ADC9620C31AD9404842002A00D1081CF6
:105F70007047034BD018FBE7963B9940F4E7C046C7
:105F8000FFFFFF7F70B5041E3CD0C60F00D0444217
:105F9000201C01F001FA9E23251C1B1A962B0CDCF9
:105FA000083884406402640ADBB2321C6402DB05F8
:105FB000600AD2071843104370BD992B0ADD0522F1
:105FC000121A211CD1400A1C011C1B318D40691E74
:105FD0008D411543052801DD421F9540164C2C408C
:105FE0006A0704D00F221540042D00D0043461014B
:105FF0000CD59F23181AFF281AD0A401640AC3B233
:10600000321CD3E7002200230024CFE7E408FF2B53
:1060100004D06402640ADBB2321CC7E7002C04D04F
:106020008020C00304436402640A321CFF23BDE7DE
:10603000321CFF230024B9E7FFFFFFFBF8B55F46E2
:10604000564644464D46F0B40C034D00CE0F610A4F
:10605000440F2143C400180380465800400D824677
:10606000D80F84464046400A530F0343D0006D0DBD
:10607000371C83465246664500D19DE0AF1A002F7B
:1060800000DC03E1002A38D1184300D0E4E06307C4
:1060900009D00F232340042B05D0231DA342A44184
:1060A000644209191C1C080200D478E0CE4B6A1C1B
:1060B0009A4200D105E1CD4BE4081940480752054A
:1060C000490204430B0B520D371C002000211B0317
:1060D000201C1C0B0B0D1B05C54D234352055208FC
:1060E0001D4015436D006D08FF07291C39433CBC5A
:1060F00090469946A246AB46F8BDBB488542C6D0FD
:10610000802000040343382F00DDECE01F2F00DD6A
:1061100020E12020C01B1A1C814682405846F840CE
:106120000243944658464A469040421E9041FB40E6
:10613000624602431F1CA21A9442A4416442C91B36
:10614000091B141C0B02A2D549024F0A002F00D1D3
:10615000C4E0381C01F020F9021C083A1F2A00DDB7
:10616000B7E02821091A201C9740C84007439440F3
:10617000954200DDA9E0551B691C1F2900DDD8E010
:106180001F22551B3B1C221CAB40CA40AC40651E65
:10619000AC411343CF401C43391C002577E7480727
:1061A000E4086A05C908520D371C04438E4B9D4212
:1061B00048D009030B0B88E7AA1A9446002A00DC92
:1061C00098E05046002853D08748854200D15EE7CA
:1061D0008020000403436246382A00DDFDE01F2AC8
:1061E00000DD4BE120226046101A1A1C82408246D4
:1061F000914658466246D0404A4602439046584629
:1062000052469040421E9041424602436046C3407F
:106210001219A242A441644259180919141C080217
:1062200000D434E7704B01359D4200D124E16F4B1F
:1062300060081940012323401C1C0443CB071C4366
:10624000490824E70B1C234300D1C7E180231B032B
:106250000B431B031B0B38E7013F002F64D158464B
:10626000221A9442A4416442C91A091B141C69E70A
:106270005846184300D10AE701225242944460462E
:10628000002800D0C5E058460219C2E7002F72D19D
:10629000681C4005400D012800DCDEE05A46A21AC9
:1062A0009442BF41C81A7F42C71B380200D488E01D
:1062B0005A46141BA3459241591A52428F1A6646F8
:1062C00044E7371C00230024FFE64849AD1A394053
:1062D000DDE6271C28388740002449E7201C01F010
:1062E0005BF8203038E75A461A43531E9A41D2B21F
:1062F000002720E7002A00D0DDE0681C4205520D8F
:10630000012A00DC8EE0384DA84200D1B3E05D46A2
:106310002A19A242A441644259180919CC0752080B
:1063200014434908051CB2E62F48854200D0EAE62E
:10633000ADE62B1C1F3B3A1CDA40131C20296DD004
:106340003F22551BAF403C43601E84411C4300214B
:1063500000259CE6381C20381A1CC240101C202F37
:106360005ED04022D71BBB405A461A43531E9A4167
:1063700002430027DFE6002D3CD01B4DAA4500D18B
:1063800094E080252D047F422943382F00DDADE0C5
:106390001F2F00DD2CE12025ED1B081C261CA8402A
:1063A000FE40AC400643651EAC413443F9405D46B7
:1063B0002C1BA34592415B1A5242991A55466646D8
:1063C000C0E6131C3B43141C002B00D0BEE6002784
:1063D0000022002500210024E8E65A461A43531EF5
:1063E0009A41D2B2002313E7FF070000FFFF7FFFAF
:1063F000FFFF0F800D1C254358D0FF43002F51D1C4
:10640000041BA3459241591A5242891A55466646C1
:1064100098E69648854200D0DDE638E6002792E708
:106420000023A1E7081C2043002D00D0C0E0002875
:1064300000D1FBE05846184300D128E6584602191F
:10644000A242A441644259180919141C0A0200D43A
:106450001DE6874B0125194019E6081C2043002D35
:1064600039D100286DD15946194300D1BDE0191C1E
:106470005C4666460BE6051C2A1CABE760462038E6
:106480001A1CC24060469146202800D1ABE0402251
:10649000121A93405A461A43531E9A414B461A43C6
:1064A0000023B5E6714DAA4500D06EE7191C5C4685
:1064B00055466646EBE5002D1ED10D1C254373D0D5
:1064C000D543002D6DD15C445C4592415918524230
:1064D00089185546A3E6002849D15946194300D1E9
:1064E00096E0191C5C466646604DD0E50C43611E83
:1064F0008C41E4B200215AE75C4DAA4554D0554284
:10650000802210040143382D00DD85E01F2D00DDC1
:1065100095E02022501B0A1C84468240201CE84043
:106520000243904662469440601E844142461443B2
:10653000E9405C445C459241CB185242991855465B
:106540006DE65846184300D1A1E55846271ABC42CB
:106550009241C81A5242801A02026AD55846041B58
:10656000A3459241591A5242891A66468FE5584608
:10657000184336D04807E40804438020C9080003C4
:10658000014208D0DD08054205D15946CA085C071A
:106590001443291C6646630FC9001943E400334DB8
:1065A00075E5324A9245AED1191C5C4655466EE5FA
:1065B000002837D05846184313D080254807E408F0
:1065C000C9082D0304432942E5D0D8082842E2D166
:1065D0005D46EA085C071443011CDCE70023002445
:1065E00073E5224D53E5002354E700270022F1E62E
:1065F0003D1C203D0A1CEA40151C202F31D04026AE
:10660000F71BB9400C43611E8C412C430021CEE6A0
:10661000164A0027151CDDE60C43611E8C41E4B2CE
:10662000002186E7191C5C46104D30E5191C5C46BC
:106630002DE5031C3B43D8D0011C3C1C27E5202042
:10664000404240190A1CC2409046202D0BD04020E9
:10665000451BA9400C43611E8C4145462C4300213B
:1066600067E70021CEE70021F4E7C046FF070000FE
:10667000FFFF7FFFF0B5564644465F464D46F0B4F7
:106680001F1C0B031B0B98464B0087B0041C814654
:106690005B0DC80F161C9A460090002B51D06A4B18
:1066A0009A4531D08022414652030A43630FD200FB
:1066B0001A43664B90460025E20091469A44002416
:1066C00002953B031B0B9B46FD0F7B00311C5B0DB2
:1066D000019560D05C4A934254D0802158464903CA
:1066E0000143720FC9001143584A8B469B18F100B1
:1066F0000020009A04436A4003920F2C00D9ADE0B9
:10670000534EA4003459A746404604436ED100219D
:1067100002250824884689460295D2E7009C029803
:10672000C34649460194022864D0032800D1ABE255
:10673000012800D038E2019A002402400025A14639
:1067400060E0434623434AD04046002800D1C0E1E0
:1067500000F022FE031E272B00DDB3E128210D1AD5
:10676000211C083B4246E9409A400D1C1543221C5F
:106770009A40A8469146374B00251B1A9A4600249A
:1067800002959EE75A4616430320002EB1D1B34628
:1067900000210220ADE75A4632431BD05B46002B56
:1067A00000D18AE1584600F0F7FD272800DD7DE1A1
:1067B0002822171A011C321C08395B46FA408B400C
:1067C000171C1F43331C8B40BB46191C214B1B1A43
:1067D00000208EE70027BB460021012089E700202A
:1067E000012504248046814602956AE703250C248E
:1067F000029566E7019C0394039D01222A40002430
:10680000114DA146002000212403260B0C0D240568
:10681000114B34432D0523402B435B005B08D2070B
:10682000191C4846114307B03CBC90469946A24605
:10683000AB46F0BD0022802424039146024DE1E7DF
:1068400000240025A146DDE7FF07000001FCFFFF53
:10685000F08D00000DFCFFFFFFFF0F805546ED1A85
:106860000495D84500D953E100D14EE1049C0025A0
:10687000013C4E4604944746A946584603020C0E76
:106880001C430902250C23041B0C0091381C291CF5
:106890000193FEF7D7FD019983464143381C8A4690
:1068A000291CFEF713FE330C090419438A450CD941
:1068B0005B460919013B8C4200D947E18A4500D863
:1068C00044E102225242934409195346CB1A181C40
:1068D000291C9846FEF7B6FD071C0198291C784331
:1068E00082464046FEF7F2FD36040B04360C334375
:1068F0009A4509D91B197A1E9C4200D924E19A4570
:1069000000D821E1023F1B195E4632041743380CC0
:10691000BB46009E009F51463F0C32045B1A59460D
:10692000BA46120C0F043F0C904651467A434F432F
:106930004146414356467043CF19160CBE19B14229
:1069400002D980277F02C019310C12043604120CC0
:106950004018B618834200D2C4E000D1BEE0191A34
:106960004846861BB145BF417F42CF1BA74200D19D
:1069700013E1291C381CFEF765FD01990290414383
:10698000381C8946291CFEF7A1FD330C0904194364
:1069900089450CD9029B0919013B8C4200D9FFE0C3
:1069A000894500D8FCE0029F0919023F02974F4633
:1069B000CF1B381C291C0597FEF744FD071C0198C6
:1069C000291C784381460598FEF780FD36040904AA
:1069D000360C0E43B14509D936197B1EB44200D995
:1069E000E0E0B14500D8DDE0023F3619029D49469E
:1069F000761A290439430B0457460A0C1B0C4046EF
:106A00004546584355437B437A43EB18070CDB1943
:106A10009D4202D980256D0252191D0C00041B04F1
:106A2000000C52191B18964235D300D1FCE001230B
:106A30001943049E994FF519002D00DCA1E0480789
:106A400009D00F230B40042B05D00B1D8B4289412D
:106A500049428B44191C5A46D20107D5904B5C46DB
:106A6000049E80271C40FF00A346F5198D4B9D42D4
:106A70007ADD039C0122224000248B4DA146C1E611
:106A800080242403474627424CD13C432403240B53
:106A9000009A854DB6E63619481EB4425ED9011CEF
:106AA0009642C4D1009E9E42C1D1C2E7031C283B3E
:106AB000311C99408B46002188E6301C00F06CFCAC
:106AC000203072E6283B211C9940002288469146DE
:106AD00051E6201C00F060FC20303BE60021B1456F
:106AE00000D33DE7009F5A46B944B945BF417F42B4
:106AF0003F19FB18013A9C421ED2984200D97EE011
:106B000000D1B5E0191A93462AE7894500D8ADE6C9
:106B10004846464642467708D3074608C0071E4304
:106B20008146AAE65846204212D1044324032A1C77
:106B3000240B89465C4D65E6A342E3D1009F4F4597
:106B4000DBD9211A93460BE7171CDDE69B46BCE612
:106B50003C432403240B009A534D53E6B24259D8C8
:106B600000D18AE0011C62E75F46C9087B07039EEB
:106B70000B437C026D0501229946240B6D0D3240BA
:106B800040E64A4B049FDB1B382B10DD039C01229F
:106B9000224000240025A14634E60121494248E76D
:106BA000029304E71F1C21E7019C039441E71F2B7C
:106BB00040DC3F48049F0C1C3A1858469140DC408A
:106BC000904020430A1C511E8A41011C11435A4621
:106BD000DA40131C480709D00F220A40042A05D0C6
:106BE0000A1D8A42894149425B18111C1A0234D598
:106BF000039C0122224000240125A14602E6009FB9
:106C000002214942B9448B44B94589414942091995
:106C1000CB18A4E6009D881E6900A942AD416D42D3
:106C20002C19361900913AE7002B00D033E70024E5
:106C3000009437E71F4A049C5D46121BD5402A1C6E
:106C4000202B1FD01C4E5F46A3199F403B1C1943AD
:106C50004B1E994111430023BCE75A07C9080A4358
:106C6000039F91465B0201221C0B3A400025C9E5B7
:106C70004E45C4D89346002172E6009F9F42C9D377
:106C8000011C0FE70023E2E7802424035F463C4316
:106C90002403240B019A8946034DB3E5FF0300004A
:106CA000FFFFFFFEFE070000FF07000002FCFFFFE2
:106CB0001E040000E2FBFFFF3E040000F0B5564654
:106CC00044465F464D46F0B41F1C0B031B0B9A460F
:106CD0004B0087B0041C80465B0DC80F161C029346
:106CE0008146002B68D0694B0299994232D08022AC
:106CF000534652031A43D200630F1A439246644A22
:106D0000E000891880460291002400253B031B0BFC
:106D10009B467800FB0F321C400D039300D175E0B9
:106D20005A4B984269D08022594652030A43730F46
:106D3000D2001A43564B9346C018F2000023039921
:106D40004E4671401C430F2C00D9A9E0514EA400BF
:106D50003459A74653461C4300D087E00025AA4675
:106D6000A84608240225D1E74946022D6CD0032D00
:106D700000D117E2012D00D058E10D40EDB2002402
:106D8000A9460023A0460020002125030A0D1C056A
:106D90002D0B1205404B2A43134023435B004C4606
:106DA0005B08E207191C4046114307B03CBC904603
:106DB0009946A246AB46F0BD5346234350D05346B6
:106DC000002B00D184E1504600F0E6FA031E272B89
:106DD00000DD76E128210D1A211C083B5246E940CE
:106DE0009A400D1C1543221C9A40AA4690462B4BF4
:106DF00000241B1A0293002588E75B461E430323E9
:106E0000002E9CD1B3460022022398E75B46334311
:106E100021D05846002800D14EE100F0BDFA2728C5
:106E200000DD42E128210F1A021C311C083A5B46A2
:106E3000F94093400F1C1F43331C9340BB461A1C60
:106E4000164B181A00237AE701230B4000249946B9
:106E5000A0460E4B97E70027BB46002201236EE7B2
:106E6000002104248A46884601254FE70C24032587
:106E70004CE700258024A9462403A846034B82E75B
:106E8000DA46904603991D1C6FE7C046FF070000D5
:106E900001FCFFFF308E0000FFFF0F800DFCFFFFA5
:106EA000029F160C381804904046070C0004000C92
:106EB0001204120C031C5343041C3D1C7443554321
:106EC00098463B1C73436419A44644460293230C22
:106ED00063449D4204D9029D802464022D190295C9
:106EE0001D0C039545462C041B04240C1C19059409
:106EF0005C46230C051C58432404240C8446381C8F
:106F0000604365435F438146CC44280C6044BB46E4
:106F1000814502D980277F02BB442D04070C2D0C2C
:106F2000000440195546BC462F04E3448446280C0F
:106F30003D0C2F1C5743B8462F1C77434243B9469C
:106F400047463F0C9144BA46D14446434A4502D98C
:106F500080225202B6184F463A0CB6183A044746F9
:106F60003F043F0CB8462F1C67435D4344435843DE
:106F700065190190380C2D184244B846AC4204D92A
:106F8000019880235B02C0180190039C029F201C83
:106F90006044C0196045A44147466442A4462B049E
:106FA0003C049946240C4C44A046D8448018C24660
:106FB000E24490429241574652429146F219E245CC
:106FC000BF417F424B46BC46D845BF41D4187F42A3
:106FD00063461F432D0C7F19B24292414C45AD418F
:106FE00052426D421543019E7D19AB19E20D5B02C1
:106FF000059F134342023A439A46531E9A41C30DDA
:10700000101C18436402204380465046C0010DD531
:10701000454601225646049C6B082A401A43F30752
:1070200001341A43760804949046B246049E634F96
:10703000F319002B61DD404640070BD00F22444678
:107040002240042A06D04246043242458041404252
:10705000824490465546ED0107D5594B5646049F4C
:1070600080201E40C000B2463B18564A934200DDC5
:10707000EAE644465546E2086807104301226C02DE
:107080005B050A408046240B5B0D91467BE6DA46A1
:1070900090461D1C69E680242403574627421CD1D4
:1070A0003C432403240B484B6DE6031C283B311C56
:1070B00099408B460022C3E6301C00F06DF9203069
:1070C000ADE6283B211C994000228A4690468EE678
:1070D000201C00F061F9203078E65846204207D1A4
:1070E000044303992403240B89469046364B4AE611
:1070F0003C432403240B344B45E6344B049E9B1B3A
:10710000382B06DD01230B4000249946A0460023BE
:1071100039E61F2B25DC049C2D4D4646601952464E
:1071200044468640DC4082405746301C2243DF40C4
:10713000441EA04102433B1C540709D00F201040BD
:10714000042805D0101D9042924152429B18021C07
:107150001D021AD501230B4000249946A0460123A5
:1071600011E61C48049C5546001BC540281C202BDA
:1071700016D0194E5746A21997403A1C43461A4357
:10718000531E9A4102430023D6E758075B02D208F8
:107190001C0B01230B401043994680460023F2E567
:1071A0000022EBE7802424035046012304431940C6
:1071B0002403240B8946044BE5E5C046FF03000089
:1071C000FFFFFFFEFE070000FF07000002FCFFFFBD
:1071D0001E040000E2FBFFFF3E04000043001B0E04
:1071E0005A1C4102D2B270B54C0AC50F012A17DDF4
:1071F000E02292006407090B9818002200231E0D5C
:10720000221C34050C431B49400540082140014322
:1072100049004908ED070B1C2B43101C191C70BDBD
:10722000002B15D1002C1CD0201C00F0B5F80A282A
:107230001ADC0B21091A231CCB40191C031C153323
:107240009C400D4B0903181A4005090B400DD4E76B
:10725000002C03D06407090B0848CEE7074800213B
:10726000CBE700200021C8E7011C0B398C40211C12
:107270000024E6E7FFFF0F8089030000FF070000FE
:10728000F0B54B000D03420F5B0D6D0A15435A1C00
:107290005205CC0FC600520D012A27DD394FDA19ED
:1072A000FE2A1ADC002A35DD8001ED00431E9841DC
:1072B0002843760F3043430704D00F230340042BA9
:1072C00000D004308021C904014027D00132FF2AB8
:1072D0001DD083015B0AD1B201E0FF2100235802D7
:1072E000C905400AE40708432043F0BD002B06D13E
:1072F000354311D10021002043025B0AEFE72E4302
:10730000EBD08020ED0080042843FF22D3E7FF214B
:107310000023E4E717320DDA05200022C008D1B2BD
:10732000FF2AE9D10028D9D08023DB0303435B0285
:107330005B0AD4E78022144912041543C91A1F2995
:107340000DDC124A371C9B18281C9F4098403B1CA0
:107350005A1E93411843CE4030430022ABE70C4FF6
:107360002A1CFF1AFA40171C202909D0094A98182C
:107370008540281C3043461EB041384300229AE71E
:107380000020F7E780FCFFFF9E03000082FCFFFF68
:107390007E030000A2FCFFFF1C2101231B04984276
:1073A00001D3000C10391B0A984201D3000A083996
:1073B0001B09984201D30009043902A2105C40184D
:1073C0007047C046040302020101010100000000F1
:1073D0000000000008B500210A2200F045FA08BDAF
:1073E00070B50E4B0E4D0024ED1AAD101E1CAC42B4
:1073F00004D0A300F35898470134F8E700F08AFD61
:10740000084B094D0024ED1AAD101E1CAC4204D0EF
:10741000A300F35898470134F8E770BD000100203D
:1074200000010020000100201C01002008B5034BD2
:10743000011C186800F06CF808BDC046F800002078
:1074400030B50023934208D0C55C0133CC18013C11
:107450002478A542F6D0281B00E0002030BD10B5EE
:107460000023934203D0CC5CC4540133F9E710BD30
:10747000031C8218934202D019700133FAE7704757
:1074800030B5002940D004390B68002B00DAC91848
:107490001E4A1368141C002B02D14B60116033E0AC
:1074A00099420FD208680A189A4205D113685268A7
:1074B000C01808604A6000E04B60216024E08A4206
:1074C00003D8131C5A68002AF9D11D685C198C4234
:1074D0000BD10968691858181960904214D11468C2
:1074E0005268091919605A600EE08C4202D90C23C7
:1074F000036009E008680C18944203D114685268CC
:10750000001908604A60596030BDC046200D002057
:1075100070B50323CD1C9D430835061C0C2D01D2EC
:107520000C2501E0002D3FDB8D423DD3204B1C6834
:107530001A1C211C002913D00868431B0DD40B2BE7
:1075400002D90B60CC181EE08C4202D16368136034
:107550001AE0486860600C1C16E00C1C4968E9E7FA
:10756000144C2068002803D1301C00F025F820605E
:10757000301C291C00F020F8431C15D0C41C032328
:107580009C4384420AD12560201C0B300722231D16
:107590009043C31A0BD05A42E25008E0211A301C23
:1075A00000F00AF80130EED10C233360002070BDEA
:1075B000200D00201C0D002038B5074C0023051CB1
:1075C000081C236000F08CFC431C03D12368002BB3
:1075D00000D02B6038BDC046340D00200EB400B57D
:1075E0009CB01DAB04CB822202A992008A810A4A78
:1075F00002908A604A6101225242CA81074A0861A8
:1076000010681D9A019300F09DF9029A00231370EF
:107610001CB008BC03B01847FFFFFF7FF800002034
:1076200010B5021C1378002B01D00132FAE7CC5CB4
:10763000D4540133002CFAD110BD02780B780130FC
:107640000131002A01D09A42F7D0D01A7047031CAA
:107650000A7801311A700133002AF9D170470023EA
:10766000C25C0133002AFBD1581E704730B5031CA1
:10767000002A07D00C7801335D1E013A2C700131CD
:10768000002CF5D19A18934203D0002119700133D0
:10769000F9E730BDF8B5174B071C1D680E1CAC6D23
:1076A000002C1FD15020FFF7C1FEA8658460AB6D90
:1076B000046044601C61DC60AB6D9C615C61AB6D1F
:1076C000DC629C62AB6D5C631C63AB6DDC639C63D2
:1076D000AB6D5C641C64AB6DDC649C64AB6D1C774F
:1076E000AB6D5C62AA6D381C311C012300F004F8FC
:1076F000F8BDC046F8000020F0B5002802D110689F
:10770000002826D00578441C0E1C3778002F09D09D
:107710000136BD42F9D1002B01D0201CF2E71460E4
:10772000037016E0002D09D11560281C11E02F7898
:10773000B74207D00135002FF9D11C1C631C2678F5
:107740000D1CF4E7002E02D00021217000E0331C54
:107750001360F0BDF0B51D1C424B87B01B6805904F
:107760000293039101920B1C1C78029F5E1C3A1934
:10777000517808220A4001D0331CF5E72D2C04D1A2
:1077800001279E1C5C78009704E000922B2C01D10D
:107790005C789E1C10232A1C9A4311D1302C08D1EE
:1077A000327820218A43582A07D174781D1C02366A
:1077B00006E0002D04D10A2502E0002D00D10825A5
:1077C000009F291C7B427B4180273F06FF1A381C03
:1077D000FDF77CFE381C0491291CFDF733FE0023C5
:1077E000021C181C029F391949784F0701D5303CFB
:1077F00007E003270F4017D05721012F00D1372171
:10780000641AAC4210DA591C0BD0904207D802D14E
:10781000049FBC4203DC68430123201801E00123DC
:107820005B4234780136DDE7009F591C0BD1802084
:107830007B427B410006059FC01A22233B60019FCB
:10784000002F09D10BE0002F00D04042019F002FF4
:1078500005D0039A002B00D0721E019F3A6007B03A
:10786000F0BDC046FC00002038B5131C044A051CBE
:107870000C1C1068291C221CFFF76CFF38BDC04689
:10788000F8000020F0B58D6885B0071C0C1C039231
:107890000193AB4245D390228B89D20013423DD055
:1078A00062690326564309692068F20F401A961947
:1078B0000290021C0198013212187610964200D2F2
:1078C000161C381C5A050FD5311CFFF721FE051E6A
:1078D00013D0029A2169FFF7C2FDA289184B134009
:1078E00080221343A38111E0321C00F0C9FA051E67
:1078F0000CD1381C2169FFF7C3FD0C233B60A38921
:10790000402213430120A381404217E0029B2561DE
:10791000ED1825606661019DF61AA6600198A842DF
:1079200000D2019D2A1C2068039900F090FAA268F9
:107930000020531BA36023685D19256005B0F0BDCE
:107940007FFBFFFFF0B59FB0039005938B890E1C62
:10795000171C19060FD53269002A0CD14021FFF7F8
:10796000D7FD30603061002803D103990C230B60F0
:10797000C9E04023736106AD00236B6120236B7661
:107980003023AB763C1C2378002B03D1E21B029200
:1079900011D003E0252BF9D00134F4E70398311C12
:1079A0003A1C029BFFF76EFF013000D1A6E0696927
:1079B000029A8B186B612378002B00D19EE0012284
:1079C00052426A606A4600235B3201342B60EB60EE
:1079D000AB601370AB654E4F2178381C052200F068
:1079E0002BFA002807D0C71B2B680120B84018438A
:1079F00028600134EFE72B68D90603D56A462021B9
:107A00005B3211701A0703D56A462B215B32117065
:107A100022782A2A01D0099B0EE0059A111D1268CE
:107A20000591002A01DB099204E05242EA60022239
:107A300013432B60013409E02278303A092A04D834
:107A40000A214B4301349B18F6E7099323782E2B28
:107A500018D163782A2B09D1059B02341A1D1B68A3
:107A60000592002B0DDA01235B420AE0013400236A
:107A70002278303A092A04D80A214B4301349B1852
:107A8000F6E70793234F2178381C032200F0D4F93E
:107A9000002806D0C71B2B684020B8401843286038
:107AA000013421781C480622671C297600F0C4F9AD
:107AB000002812D0194B002B06D1059B0722073353
:107AC00093430833059314E005AB00930398291CF6
:107AD000321C134B00E000BF07E005AB0093039896
